:100000000C9424010C9441010C9441010C94410185
:100010000C9441010C9441010C9441010C94410158
:100020000C9441010C9441010C9441010C94410148
:100030000C9441010C9441010C9441010C94410138
:100040000C9441010C9441010C940A030C94E402B9
:100050000C9441010C9441010C9441010C94410118
:100060000C9441010C944101000000000000005F6D
:1000700000000007000700147F147F14242A7F2A41
:10008000122313086462364955225000050300000C
:10009000001C2241000041221C0014083E081408E4
:1000A000083E0808005030000008080808080060F2
:1000B00060000020100804023E5149453E00427F86
:1000C000400042615149462141454B311814127F8D
:1000D0001027454545393C4A494930017109050316
:1000E0003649494936064949291E0036360000007E
:1000F0005636000008142241001414141414004150
:100100002214080201510906324979413E7E11113B
:10011000117E7F494949363E414141227F4141227A
:100120001C7F494949417F090909013E4149497AF2
:100130007F0808087F00417F41002040413F017F48
:10014000081422417F404040407F020C027F7F0420
:1001500008107F3E4141413E7F090909063E415159
:10016000215E7F09192946464949493101017F012C
:10017000013F4040403F1F2040201F3F4038403F4C
:100180006314081463070870080761514945430068
:100190007F41410002040810200041417F00040219
:1001A0000102044040404040000102040020545439
:1001B00054787F48444438384444442038444448C0
:1001C0007F3854545418087E0901020C5252523E92
:1001D0007F0804047800447D40002040443D007FB7
:1001E0001028440000417F40007C041804787C08FB
:1001F00004047838444444387C1414140808141453
:10020000187C7C080404084854545420043F44409B
:10021000203C4040207C1C2040201C3C4030403C86
:1002200044281028440C5050503C4464544C440022
:100230000836410000007F00000041360800100829
:10024000081008784641467811241FBECFEFD8E049
:10025000DEBFCDBF13E0A0E0B1E0E8E6F4E102C00C
:1002600005900D92A238B107D9F726E0A2E8B3E0D5
:1002700001C01D92A133B207E1F70E94B6020C94AF
:10028000320A0C940000219AE0E8F0E0F093890033
:10029000E093880080818068808382E08093810081
:1002A00080818B60808308951C98249884B184B9E0
:1002B000E0E8F0E0F0938900E0938800808180839B
:1002C000109281008081816080830895F8949093DA
:1002D000C5008093C40088E98093C10086E08093C4
:1002E000C2001092C4031092C503109282031092B0
:1002F000830378940895CF93DF93CDB7DEB7E79764
:100300000FB6F894DEBF0FBECDBF209A229A249874
:1003100060E173E0CE0189960E9443076DE173E0CE
:10032000CE0145960E9443076EE273E0CE0101962E
:100330000E9443078FE20E9464050E943F036DE321
:1003400073E086E094E00E94430720E046E054E03A
:1003500070E060E090E080E00E94210521E0AE01C5
:10036000475D5F4F68E070E090E080E00E9421050B
:1003700021E0AE014B5E5F4F60E170E090E080E015
:100380000E94210521E0AE014F5F5F4F68E170E000
:1003900090E080E00E94210520E046E054E060E229
:1003A00070E090E080E00E9421050E942C0387E627
:1003B00090E00E946601259A87E880937A0080E4A5
:1003C00080937C00E7960FB6F894DEBF0FBECDBFDA
:1003D000DF91CF9108959091C5039F5F903408F00D
:1003E00090E02091C4032917E1F3E92FF0E0EA53EC
:1003F000FC4F80839093C50388EB8093C1000895E0
:1004000090918303809182039817D1F39091820396
:100410009F5F903408F090E0E92FF0E0EC57FC4F3C
:100420008081909382030895CF93DF93EC018991AB
:10043000811103C0DF91CF9108950E94EB01F7CFA6
:100440000F931F93CF93DF93CDB7DEB7C45AD10973
:100450000FB6F894DEBF0FBECDBF80917A008064E6
:1004600080937A0080917A0086FDFCCF009178001D
:10047000109179004AE0BE016F5F7F4FC8010E9472
:100480004A070039114008F050C00E9443016EE550
:1004900073E0CE018D589F4F0E944307289ACE01EA
:1004A00001960E9414028AE00E94EB010E943F0321
:1004B0006DE373E0CE018F5B9F4F0E94430720E006
:1004C000AE014F5B5F4F68E070E090E080E00E941B
:1004D000210521E0AE014F5F5F4F68E170E090E0E1
:1004E00080E00E94210521E0AE014D585F4F60E1A0
:1004F00070E090E080E00E94210520E0AE014F5BBB
:100500005F4F60E270E090E080E00E9421050E9471
:100510002C03CC55DF4F0FB6F894DEBF0FBECDBF16
:10052000DF91CF911F910F9108950E9454016FE6C2
:1005300073E0CE018D589F4F0E9443072A9AAFCF98
:100540001C9B0BC02FEF81EE94E021508040904027
:10055000E1F700C000000C9420021C9906C01C9812
:10056000249828982A980C94540108950E947B019D
:100570000E94A002FDCFEF92FF920F931F93CF93A3
:10058000DF938C01D62F7C01C0E00E940002CF5F78
:10059000F70181937F01CD1710F48A30B1F7C00FB6
:1005A000D12FD11D1882DF91CF911F910F91FF9014
:1005B000EF9008958091830390918203891710F042
:1005C000891B0895805CFCCF8F938FB78F939F9387
:1005D000EF93FF939091C5038091C40398130AC0D1
:1005E00088E98093C100FF91EF919F918F918FBF18
:1005F0008F9118958091C4038F5F803408F080E05C
:10060000E82FF0E0EA53FC4F90819093C60080936E
:10061000C403E9CF2F932FB72F938F939F93EF931B
:10062000FF939091C600809183038F5F803408F020
:1006300080E020918203281739F0E82FF0E0EC5792
:10064000FC4F908380938303FF91EF919F918F9153
:100650002F912FBF2F911895CF93DF9360E080E00B
:100660000E94A105C9E3D4E0699181E00E9446059A
:1006700086E0C133D807C1F7DF91CF910895E9E350
:10068000F4E0119286E0E133F807D9F70895DC0130
:100690009B0184359105F8F460337105E0F4CB01DA
:1006A00033E0959587953A95E1F734E5389FF00169
:1006B000399FF00D1124EA0FFB1FE75CFB4F3081DF
:1006C000277081E090E001C0880F2A95EAF7442363
:1006D00019F0832B8083089580958323FBCF3F926D
:1006E0004F925F926F927F928F929F92AF92BF9242
:1006F000CF92DF92EF92FF920F931F93CF93DF93EE
:10070000CDB7DEB72C970FB6F894DEBF0FBECDBFC6
:100710008B879C877B016A0159012B853C852417B7
:10072000350799F56B0113C081E0C81AD1080FC0D5
:10073000CA14DB0494F0402FB6018B859C850E947F
:100740004703EA14FB0484F73FEFC31AD30AEA1401
:10075000FB0474F7AC14BD0474F72C960FB6F89430
:10076000DEBF0FBECDBFDF91CF911F910F91FF90E4
:10077000EF90DF90CF90BF90AF909F908F907F9041
:100780006F905F904F903F9008956A157B0501F53B
:10079000AB84BC8414C021E0A21AB10810C0AC1410
:1007A000BD04DCF2402FB701C5010E944703AB85B1
:1007B000BC85AC15BD057CF7BFEFAB1ABB0A8B85BA
:1007C0009C858C159D055CF7CA14DB045CF7C5CFCE
:1007D000AB85BC854A175B0754F48F2D7501A62E97
:1007E000B82E9B858C855C874B87C92ED82E360109
:1007F0002B853C85621A730A45018E189F08C40137
:10080000092C000CAA0BBB0B89839A83AB83BC8396
:10081000BC01CD010E948E06362E472E582E192F70
:10082000C301072C000CAA0BBB0B89839A83AB83F3
:10083000BC83BC01CD010E948E069B01AC013982B4
:100840004A825B821C8369817A818B819C810E94B0
:100850001A06462F572FBC014D835E836F8378871E
:1008600020E030E0A9016D817E818F8198850E9412
:100870001A0787FF09C08D819E81AF81B885B05866
:100880008D839E83AF83B88710E0512C412C312C8F
:10089000892D881F8827881FA82FB0E0BA87A987CD
:1008A000161417040CF068C02B853C85C216D306BD
:1008B0000CF453CF402FB7018B859C850E944703D2
:1008C0002D813E814F81588519835A824B823C820B
:1008D00069817A818B819C810E94AE05162F572EEB
:1008E000482E392E20E030E040E05FE369837A83D0
:1008F0008B839C8369817A818B819C810E941A07FA
:1009000087FD06C01814190464F4AE14BF0464F41F
:10091000161417045CF58B859C8501969C878B8744
:10092000BFCFEA14FB04A4F3402FB7018B859C854D
:100930000E94470381E090E01814190414F090E03D
:1009400080E029853A85821B930BE80EF91E20E092
:1009500030E040E85FE319835A824B823C82698130
:100960007A818B819C810E94AD05B8CFAB85BC8517
:100970001197BC87AB8794CF8B859C858C159D0583
:100980000CF098CFEACE5F926F927F928F929F92F7
:10099000AF92BF92CF92DF92EF92FF920F931F938D
:1009A000CF93DF935B01522E4052550B65E0649F5D
:1009B0009001659F300D1124A90148595F4F7A01BC
:1009C000EC013C0155E0650E711C88248394912C48
:1009D000F701C490511001C0C09410E000E0D12C88
:1009E000A401002E02C0440F551F0A94E2F74C21C7
:1009F0005D21002E02C0559547950A94E2F7B50196
:100A0000600F711FCE010E9447030F5F1F4F083018
:100A1000110531F7FFEFEF1AFF0A2196C615D7052A
:100A2000B9F6DF91CF911F910F91FF90EF90DF907A
:100A3000CF90BF90AF909F908F907F906F905F907E
:100A40000895DF92EF92FF920F931F93CF93DF935E
:100A5000E62ED72E8A01F22EC82FD0E0F801ED0F36
:100A6000F11D4081411108C0DF91CF911F910F917D
:100A7000FF90EF90DF9008952F2D6E2D7D2D8C2F00
:100A800090E00E94C304CB5FDF5FE8CF9BB19F7D06
:100A900040E2849F90011124922B9BB95F9887E0DC
:100AA00090E070E05B989B01082E02C03595279579
:100AB0000A94E2F720FF06C05C9A5B9A019790F7D0
:100AC0005F9A08955C98F9CFCF93C82F579A569A9A
:100AD000559A549A539A5E985F9A5E9A61E280E0C2
:100AE0000E9446056C2F606880E00E94460564E025
:100AF00080E00E94460563E180E00E9446056CE0CC
:100B000080E00E94460560E280E00E9446056CE0BD
:100B100080E00E94460560E480E00E94460560E8AF
:100B200080E0CF910C944605CF93DF93C8EFD1E0DE
:100B300060E081E00E9446052197D1F7DF91CF91D7
:100B40000895CF93C82F606480E00E9446056C2F03
:100B5000606880E0CF910C9446055058BB27AA27C7
:100B60000E94C5050C94E0060E94D20638F00E944F
:100B7000D90620F039F49F3F19F426F40C94CF06DF
:100B80000EF4E095E7FB0C94C906E92F0E94F106EC
:100B900058F3BA17620773078407950720F079F4B2
:100BA000A6F50C9413070EF4E0950B2EBA2FA02D8A
:100BB0000B01B90190010C01CA01A0011124FF270A
:100BC000591B99F0593F50F4503E68F11A16F04005
:100BD000A22F232F342F4427585FF3CF4695379504
:100BE0002795A795F0405395C9F77EF41F16BA0BC9
:100BF000620B730B840BBAF09150A1F0FF0FBB1F77
:100C0000661F771F881FC2F70EC0BA0F621F731FBF
:100C1000841F48F4879577956795B795F7959E3F1C
:100C200008F0B0CF9395880F08F09927EE0F9795AD
:100C3000879508950E942E060C94E0060E94D9061E
:100C400058F00E94D20640F029F45F3F29F00C943E
:100C5000C90651110C9414070C94CF060E94F1069A
:100C600068F39923B1F3552391F3951B550BBB27DB
:100C7000AA2762177307840738F09F5F5F4F220F20
:100C8000331F441FAA1FA9F335D00E2E3AF0E0E817
:100C900032D091505040E695001CCAF72BD0FE2F61
:100CA00029D0660F771F881FBB1F261737074807F5
:100CB000AB07B0E809F0BB0B802DBF01FF279358AD
:100CC0005F4F3AF09E3F510578F00C94C9060C94A2
:100CD00014075F3FE4F3983ED4F3869577956795C4
:100CE000B795F7959F5FC9F7880F911D96958795E2
:100CF00097F90895E1E0660F771F881FBB1F621701
:100D000073078407BA0720F0621B730B840BBA0BBE
:100D1000EE1F88F7E0950895E89409C097FB3EF42C
:100D200090958095709561957F4F8F4F9F4F992338
:100D3000A9F0F92F96E9BB279395F69587957795B6
:100D40006795B795F111F8CFFAF4BB0F11F460FF76
:100D50001BC06F5F7F4F8F4F9F4F16C0882311F0CE
:100D600096E911C0772321F09EE8872F762F05C0E2
:100D7000662371F096E8862F70E060E02AF09A957D
:100D8000660F771F881FDAF7880F9695879597F972
:100D9000089597F99F6780E870E060E008959FEFFD
:100DA00080EC089500240A94161617061806090602
:100DB000089500240A9412161306140605060895D1
:100DC000092E0394000C11F4882352F0BB0F40F459
:100DD000BF2B11F460FF04C06F5F7F4F8F4F9F4F99
:100DE000089557FD9058440F551F59F05F3F71F01B
:100DF0004795880F97FB991F61F09F3F79F0879582
:100E00000895121613061406551FF2CF4695F1DF0A
:100E100008C0161617061806991FF1CF869571059A
:100E2000610508940895E894BB2766277727CB01CE
:100E300097F908950E941F0708F48FEF0895990FFE
:100E40000008550FAA0BE0E8FEEF16161706E80794
:100E5000F907C0F012161306E407F50798F0621BB5
:100E6000730B840B950B39F40A2661F0232B242B8A
:100E7000252B21F408950A2609F4A140A6958FEFA9
:100E8000811D811D0895FB01DC0101900D92002060
:100E9000E1F70895BB274A3031F4992322F4BDE2EB
:100EA000909581959F4F0C945607BB27FB015527C2
:100EB000AA27880F991FAA1FA41710F0A41B8395B7
:100EC0005051B9F7A05DAA3308F0A95DA19300972E
:100ED00079F7B111B1931192CB010C945D09AFE098
:100EE000B0E0E5E7F7E00C94FB097C013B018A01E7
:100EF000DC0117961C921E92169713968C9181FF17
:100F0000C3C19AE0292EFE0131964F01D7011396F5
:100F10009C91F30193FD859193FF81913F0188237B
:100F200009F448C1853239F493FD859193FF81918D
:100F30003F01853229F4B70190E00E946D09E6CFA8
:100F4000B12C412C512CBFE1B51538F08B3209F191
:100F500088F4803201F1833221F157FC3AC020ED50
:100F6000280F2A3040F556FE1FC0B29C200D1124D8
:100F7000B22E06C08D3291F0803379F7689450F824
:100F8000F30193FD859193FF81913F018111DBCFA7
:100F900020C0689451F8689452F8F2CF689453F8DE
:100FA000EFCF689454F8ECCF429C200D1124422ED0
:100FB000689455F8E5CF8E3229F456FCFBC068944E
:100FC00056F8DECF8C3619F4689457F8D9CF8836A6
:100FD000B9F2982F9F7D95549330C0F08336A1F1DC
:100FE0008337C1F1833509F05BC0D801CD90DD9026
:100FF0008D016B2D70E056FC02C06FEF7FEFC601D4
:101000000E9447095C01689457F80AC00C5F1F4FA3
:10101000EFE3E983AA24A394B12C6401E89457F880
:1010200053FC04C04A141B0409F018F5342CA11415
:10103000B10431F5332009F469CFB70180E290E0C3
:101040000E946D093A94F6CFD8018C9189830E5F86
:101050001F4FE0CFF801C190D1908F016B2D70E050
:1010600056FC02C06FEF7FEFC6010E9452095C017F
:10107000D5CFB70180E290E00E946D094A94D2CFAB
:10108000F60157FC859157FE81916F01B70190E001
:101090000E946D0931103A94B1E0AB1AB108C7CF84
:1010A000843619F0893609F074C0F80157FE6AC019
:1010B00061917191819191918F01E52DEF76DE2EF5
:1010C00097FF09C090958095709561957F4F8F4FE0
:1010D0009F4F6894D7F82AE030E0A4010E949D0950
:1010E000C82EC818AC2C5D2CD6FE0CC0E89450F865
:1010F000CB1440F4D4FE05C0D2FC03C05D2D5E7E4F
:10110000552EAB2C54FE98C0FE01EC0DF11D8081D4
:10111000803309F08AC0652D697E562E752D787052
:10112000372E53FC98C050FE92C0BC2CA41418F467
:101130004C0CB42CBA1854FE94C0B70180E390E074
:101140000E946D0952FE09C088E790E051FE02C07E
:1011500088E590E0B7010E946D09CB1408F48DC0BA
:10116000CA94D12C8FEFC81AD80AC80CD91CD60142
:101170008E916D01B70190E00E946D098C149D0461
:10118000B1F758CF61917191072E000C880B990B24
:1011900093CFD52CE894D4F82AE030E0853739F1A4
:1011A000F52DF97FDF2E8037A9F058F48835A9F0A6
:1011B0008F36D9F0F701868197812F96E2E10C9462
:1011C000170A8837B9F7D4FE02C06894D2F820E134
:1011D00030E00DC06894D4F8F6CF54FE03C02F2F32
:1011E0002660D22E20E132E002C028E030E0F80193
:1011F000D7FE15C041915191619171914C875D87E6
:101200006E877F878F01A4016C857D858E859F8584
:101210000E949D09C82EC818E894D7F863CF819121
:101220009191AC0170E060E0E9CF52FC02C0A39460
:1012300075CFA394A39472CF852D867809F46ECFD1
:10124000F6CFB70180E290E00E946D09A394A41448
:10125000C0F3312C70CF342C3A18A41408F46BCF9F
:10126000F8CF852D867809F478CF8BE251FE80E2A5
:1012700057FC8DE2B70190E06ECFB70180E390E0BC
:101280000E946D09BA9469CF8FEF9FEF96CFFC0152
:101290000590615070400110D8F7809590958E0FA1
:1012A0009F1F0895FC016150704001900110D8F714
:1012B000809590958E0F9F1F0895DC01FC01672F8C
:1012C00071917723E1F7329704C07C916D9370831D
:1012D0006291AE17BF07C8F308950F931F93CF9382
:1012E000DF93182F092FEB018B8181FD09C01FEFC0
:1012F0000FEF812F902FDF91CF911F910F910895C4
:1013000082FF14C02E813F818C819D81281739076F
:101310003CF4E881F981CF01019699838883108399
:101320008E819F8101969F838E83E3CFE885F98527
:10133000812F0995892BA1F3DACFFA01AA2728304A
:1013400051F1203181F1E8946F936E7F6E5F7F4F92
:101350008F4F9F4FAF4FB1E03ED0B4E03CD0670F0E
:10136000781F891F9A1FA11D680F791F8A1F911D61
:10137000A11D6A0F711D811D911DA11D20D009F4B1
:1013800068943F912AE0269F11243019305D3193F3
:10139000DEF6CF010895462F4770405D4193B3E0DC
:1013A0000FD0C9F7F6CF462F4F70405D4A3318F083
:1013B000495D31FD4052419302D0A9F7EACFB4E034
:1013C000A6959795879577956795BA95C9F70097EC
:1013D0006105710508959B01AC010A2E069457958D
:1013E000479537952795BA95C9F7620F731F841FE4
:1013F000951FA01D08952F923F924F925F926F927A
:101400007F928F929F92AF92BF92CF92DF92EF9294
:10141000FF920F931F93CF93DF93CDB7DEB7CA1B15
:10142000DB0B0FB6F894DEBF0FBECDBF09942A8840
:10143000398848885F846E847D848C849B84AA84E8
:10144000B984C884DF80EE80FD800C811B81AA8175
:10145000B981CE0FD11D0FB6F894DEBF0FBECDBF40
:08146000ED010895F894FFCF9F
:10146800FFFFFFFFFFF9FFFFFFFFF0FFFFFFFFFF99
:10147800F1FFFFFFFFF0FFFFFFFFFFC0FFFFFFFFD0
:10148800F0FFFFFFFFFFC0FFFFFFFFF0FFFFFFFFC1
:10149800FF80FFFFFFFFF0FFFFFFFFFF00FFFFFFE1
:1014A800FFF0FFFFFFFFFF00FFFFFFFFF0FFFFFF61
:1014B800FFFF00FFFFFFFFF0FFFFFFFFFF00FFFF41
:1014C800FFFFF0FFFFFFFFFF01FFFFFFFFF0FFFF40
:1014D800FFFFFF01FFFFFFFFF0FFFFFFFFC303FF59
:1014E800FFFFFFF0FFFFFFFFC1873FFFFFFFF0FF98
:1014F800FFFFFFC0BC0FFFFFFFF0FFFFFFFFE07C17
:101508001FFFFFFFF0FFFFFFFFF0743FFFFFFFF03B
:10151800FFFFFFFFF86FFFFFFFFFF0FFFFFFFFFF79
:101528005FFFFFFFFFF0FFFFFFFFFFBFFFFFFFFFB2
:10153800F0FFFFFFFFFFFFFFFFFFFFF0FFFFFFFFD1
:10154800FF7FFFFFFFFFF0FFFFFFFFFF7FFFFFFFB2
:10155800FFF0FFFFFFFFFFFFFFFFFFFFF0FFFFFFB1
:10156800FFFF7FFFFFFFFFF0FFFFFFFFFF7FFFFF92
:10157800FFFFF0FFFFFFFFFF7FFFFFFFFFF0FFFF11
:10158800FFFFF91FFFFFFFFFF0FFFFFFFFC009FF8D
:10159800FFFFFFF0FFFFFFFF00007FFFFFFFF0FFEF
:1015A800FFFFFFFF803FFFFFFFF0FFFFFFFFFF8010
:1015B8003FFFFFFFF0FFFFFFFFFF003FFFFFFFF0D0
:1015C800FFFFFFFF00007FFFFFFFF0FFFFFFFF802F
:1015D800007FFFFFFFF0FFFFFFFF80007FFFFFFF9F
:1015E800F0FFFFFFFF8000FFFFFFFFF0FFFFFFFF9F
:1015F8008000FFFFFFFFF0FFFFFFFFC000FFFFFFBE
:10160800FFF0FFFFFFFFC001FFFFFFFFF0FFFFFF3D
:10161800FFC001FFFFFFFFF0FFFFFFFFC001FFFF5B
:10162800FFFFF0FFFFFFFFE001FFFFFFFFF0FFFFFD
:10163800FFFFE003FFFFFFFFF0FFFFFFFF8000FF5A
:10164800FFFFFFF0FFFFFFC00000007FFFFFF0FF7C
:10165800FFFFC00000007FFFFFF0FFFFFFC000009A
:10166800117FFFFFF0FFFFFFC00000007FFFFFF0CA
:101678005061756C277320506C616E74004D6F69F2
:1016880073747572652053656E736F7221005072A2
:1016980065737320746F207374617274002A2A2A28
:1016A8002A2A2A2A2A2A2A2A2A2A2A2A2A2A2A2A92
:1016B8002A2A2A2A2A2A2A2A2A2A2A2A2A00576148
:1016C800746572206D6520706C6561736521004DCD
:1016D8006F69737421204E6F696365204A6F6221B8
:0216E800000000
:00000001FF
